:020000040000FA
:100000000C9462000C948A000C948A000C948A0070
:100010000C948A000C948A000C948A000C948A0038
:100020000C948A000C948A000C948A000C948A0028
:100030000C948A000C948A000C948A000C948A0018
:100040000C94FF020C948A000C948A000C948A0091
:100050000C948A000C948A000C948A000C948A00F8
:100060000C948A000C948A000000000023002600F3
:10007000290000000000240027002A0000000000E2
:10008000250028002B0004040404040404040202D4
:100090000202020203030303030301020408102007
:1000A0004080010204081020010204081020000012
:1000B0000008000201000003040700000000000027
:1000C0000000FA0311241FBECFEFD8E0DEBFCDBF82
:1000D00011E0A0E0B1E0E0E4F8E002C005900D928C
:1000E000A435B107D9F721E0A4E5B1E001C01D9224
:1000F000A537B207E1F710E0C2E6D0E004C02197CF
:10010000FE010E941804C136D107C9F70E944903B5
:100110000C941E040C940000833081F028F481308C
:1001200099F08230A9F008958730A9F08830C9F09D
:100130008430B1F4809180008F7D03C08091800075
:100140008F7780938000089584B58F7784BD08955C
:1001500084B58F7DFBCF8091B0008F778093B00006
:1001600008958091B0008F7DF9CF1F93CF93DF93D7
:10017000282F30E0F901E255FF4F8491F901E6564E
:10018000FF4FD491F901EA57FF4FC491CC23A9F056
:10019000162F81110E948C00EC2FF0E0EE0FFF1F54
:1001A000E458FF4FA591B4918FB7F894EC911111D9
:1001B00008C0D095DE23DC938FBFDF91CF911F91D4
:1001C0000895DE2BF8CFCF93DF9390E0FC01E65645
:1001D000FF4F24918A579F4FFC0184918823D1F0CF
:1001E00090E0880F991FFC01EE58FF4FA591B49144
:1001F000FC01E458FF4FC591D491623071F49FB770
:10020000F8943C91822F809583238C93E8812E2B48
:1002100028839FBFDF91CF9108958FB7F894EC9119
:100220002E2B2C938FBFF6CF3FB7F89480915901B6
:1002300090915A01A0915B01B0915C0126B5A89BF9
:1002400005C02F3F19F00196A11DB11D3FBFBA2F68
:10025000A92F982F8827BC01CD01620F711D811D28
:10026000911D42E0660F771F881F991F4A95D1F7AD
:1002700008958F929F92AF92BF92CF92DF92EF92AA
:10028000FF924B015C010E9414016B017C010E94F2
:1002900014016C197D098E099F09683E7340810520
:1002A0009105A8F321E0821A9108A108B10888EE0F
:1002B000C80E83E0D81EE11CF11C81149104A10436
:1002C000B10429F7FF90EF90DF90CF90BF90AF90EF
:1002D0009F908F900895AF92BF92CF92DF92EF924E
:1002E000FF920F931F93CF93DF936C017B018B01E0
:1002F000040F151FEB015E01AE18BF08C017D10730
:1003000059F06991D601ED91FC910190F081E02DB9
:10031000C6010995892B79F7C501DF91CF911F910E
:100320000F91FF90EF90DF90CF90BF90AF90089526
:10033000089590E080E00895FC0101900020E9F725
:100340003197AF01481B590BBC018DE591E00C942E
:100350006B01CF93DF93EC0160E08E810E94B500CA
:1003600061E08E810E94B50060E08E810E94B50040
:100370008BE891E00197F1F7DF91CF910895CF924B
:10038000DF92EF92FF920F931F93CF93DF936C0155
:100390007C0187E0E80EF11CD0E0C0E0062F10E001
:1003A000B8010C2E02C0759567950A94E2F761704A
:1003B000F70181917F010E94B5002196C430D105DB
:1003C00079F7C601DF91CF911F910F91FF90EF90C8
:1003D000DF90CF900C94A901CF92DF92EF92FF9221
:1003E0000F931F93CF93DF93EC01F62E642F8C8134
:1003F0000E94B5008D818F3F19F060E00E94B5002A
:100400000F2D10E08F8584FF25C06E0187E0C80E98
:10041000D11CF12CE12CB8010E2C02C0759567950A
:100420000A94E2F76170F60181916F010E94B500B4
:10043000FFEFEF1AFF0A88E0E816F10461F7CE013A
:10044000DF91CF911F910F91FF90EF90DF90CF90B0
:100450000C94A901B80184E0759567958A95E1F738
:10046000CE010E94BF016F2DCE01DF91CF911F9170
:100470000F91FF90EF90DF90CF900C94BF0140E080
:10048000682F8DE591E00C94EC01CF93DF938230DF
:1004900029F490916C01986090936C0180937001A5
:1004A0001092710180E48093720180E18093730166
:1004B00080E58093740161E0809161010E94E30016
:1004C000809162018F3F19F061E00E94E30061E0DA
:1004D000809163010E94E300CDE5D1E09E012D559E
:1004E000314080916C0184FD0BC084E090E0219646
:1004F0002817390744F461E08E810E94E300EECFB3
:1005000088E090E0F4CF8BE39DE00197F1F760E0A5
:10051000809161010E94B50060E0809163010E94BA
:10052000B500809162018F3F19F060E00E94B50034
:1005300080916C0184FD39C063E08DE591E00E94FB
:10054000BF01CBE4D6E4CE010197F1F763E08DE57E
:1005500091E00E94BF012197F1F763E08DE591E002
:100560000E94BF0183E592E00197F1F762E08DE51B
:1005700091E00E94BF0180916C0180620E943F0265
:1005800084E080936D018CE00E943F0281E00E9434
:100590003F028BE39FE10197F1F782E080936E01C8
:1005A00086E0DF91CF910C943F0280620E943F026F
:1005B0008BE496E40197F1F780916C0180620E94D0
:1005C0003F0283E592E00197F1F780916C01806230
:1005D0000E943F02D0CF90917001891710F08FEFE9
:1005E000890FE82FF0E0E35AFE4F848980680C946D
:1005F0003F0241E00E94EC0181E090E008951F92EB
:100600000F920FB60F9211242F933F938F939F93C6
:10061000AF93BF938091550190915601A0915701DE
:10062000B09158013091540123E0230F2D3758F534
:100630000196A11DB11D2093540180935501909303
:100640005601A0935701B0935801809159019091A0
:100650005A01A0915B01B0915C010196A11DB11DF1
:100660008093590190935A01A0935B01B0935C0170
:10067000BF91AF919F918F913F912F910F900FBE9E
:100680000F901F90189526E8230F0296A11DB11D0B
:10069000D2CF789484B5826084BD84B5816084BDF6
:1006A00085B5826085BD85B5816085BD80916E0010
:1006B000816080936E001092810080918100826041
:1006C000809381008091810081608093810080917E
:1006D00080008160809380008091B100846080936D
:1006E000B1008091B00081608093B00080917A0069
:1006F000846080937A0080917A00826080937A008F
:1007000080917A00816080937A0080917A0080687D
:1007100080937A001092C10061E089E00E94E300BA
:1007200062E088E00E94E30082E00E9445028CE0E3
:1007300091E00E949C016CED75E080E090E00E94E9
:10074000390181E00E943F028BE39FE10197F1F7BD
:10075000C6EBD0E002EA10E09EE8E92E90E0F92E28
:1007600020E0C22E20E0D22EFE018491F801A49058
:10077000F701B490BB2069F181110E948C00EB2D30
:10078000F0E0EE0FFF1FE859FF4FA591B4918C9157
:10079000A822F9F061E089E00E94B50080E00E94A3
:1007A000EB0287E191E00E949C0181E00E94EB0254
:1007B00086E291E00E949C016CE271E080E090E0B2
:1007C0000E943901C114D10409F4CECF0E94000067
:1007D000CBCF61E089E00E94B50080E00E94EB028F
:1007E00085E391E00E949C0181E00E94EB0284E499
:1007F00091E0E0CFEDE5F1E01382128284E091E038
:100800009183808387E084838FEF858386E086836E
:1008100085E0878384E0808783E0818782E0828728
:100820001386148615861686178681E00C94450279
:10083000EE0FFF1F0590F491E02D0994F894FFCF7F
:1008400000000000F9026B01990198015246204D09
:100850006F6E69746F72004152454120434C4541AF
:100860005220202020004D6F6E69746F72696E6790
:100870002E2E2E200044524F4E4520414C455254BE
:1008800021202000524620414354495649545920C2
:040890002020000024
:107E0000112484B714BE81FFF0D085E080938100F7
:107E100082E08093C00088E18093C10086E0809377
:107E2000C20080E18093C4008EE0C9D0259A86E02C
:107E300020E33CEF91E0309385002093840096BBD3
:107E4000B09BFECF1D9AA8958150A9F7CC24DD24C4
:107E500088248394B5E0AB2EA1E19A2EF3E0BF2EE7
:107E6000A2D0813461F49FD0082FAFD0023811F036
:107E7000013811F484E001C083E08DD089C08234E0
:107E800011F484E103C0853419F485E0A6D080C0E4
:107E9000853579F488D0E82EFF2485D0082F10E0AE
:107EA000102F00270E291F29000F111F8ED06801E7
:107EB0006FC0863521F484E090D080E0DECF843638
:107EC00009F040C070D06FD0082F6DD080E0C81688
:107ED00080E7D80618F4F601B7BEE895C0E0D1E017
:107EE00062D089930C17E1F7F0E0CF16F0E7DF06D8
:107EF00018F0F601B7BEE89568D007B600FCFDCFD4
:107F0000A601A0E0B1E02C9130E011968C91119780
:107F100090E0982F8827822B932B1296FA010C0160
:107F200087BEE89511244E5F5F4FF1E0A038BF0790
:107F300051F7F601A7BEE89507B600FCFDCF97BE46
:107F4000E89526C08437B1F42ED02DD0F82E2BD052
:107F50003CD0F601EF2C8F010F5F1F4F84911BD097
:107F6000EA94F801C1F70894C11CD11CFA94CF0C13
:107F7000D11C0EC0853739F428D08EE10CD085E9AC
:107F80000AD08FE07ACF813511F488E018D01DD067
:107F900080E101D065CF982F8091C00085FFFCCF94
:107FA0009093C60008958091C00087FFFCCF809118
:107FB000C00084FD01C0A8958091C6000895E0E648
:107FC000F0E098E1908380830895EDDF803219F02E
:107FD00088E0F5DFFFCF84E1DECF1F93182FE3DFCA
:107FE0001150E9F7F2DF1F91089580E0E8DFEE27F6
:047FF000FF270994CA
:027FFE00040479
:00000001FF
